:020000040000FA
:0400000045EF09F0CF
:06002A00D9CFE5FFE1CF94
:10003000D9FF00C0E5FF01C0E5FF02C0E5FF03C036
:10004000E5FF04C0E5FF05C0E5FF06C0E5FF07C00A
:10005000E5FF08C0E5FF09C0E5FF61C000F00D0E37
:10006000005CD8B08BEF04F00AC0E5FF0BC0E5FFE1
:100070000B6A00340B36E8340B36FC0B0A6E000EAC
:10008000FB6E000EFA6E9E0E0A260B50FA22D8B0B6
:10009000FB2A0A50E4CF0BF0E4CF0AF0F96E69EFC7
:1000A00000F0CAEF01F08BEF04F0CAEF01F08BEF24
:1000B00004F0D0EF02F0E7EF02F08BEF04F0F8EF7E
:1000C00003F00AEF04F03BEF04F063EF04F08BEF72
:1000D00004F01F0E00016015016E030E015CD8B024
:1000E000C6EF01F00AC0E5FF0BC0E5FF0B6A013463
:1000F0000B36E8340B36FC0B0A6E000EFB6E010E5D
:10010000FA6E1A0E0A260B50FA22D8B0FB2A0A50B1
:10011000E4CF0BF0E4CF0AF0F96E93EF00F0B3EF09
:1001200000F0EFEF00F006C401F007C402F001C0D8
:10013000E9FF02C0EAFF77C0EFFF010E04010625C8
:10014000016E000E04010721026E01C0E9FF02C02A
:10015000EAFF000EEF6E020E0401056FC80E0401E7
:10016000046F8DEF04F000017651020A02E1C1EF45
:1001700000F000017651030A02E1C5EF00F08DEFB7
:1001800004F000017A818DEF04F0010E0001645D3E
:10019000D8B0EBEF00F006C401F007C402F001C0D4
:1001A000E9FF02C0EAFF000EEF6E010E0401062512
:1001B000016E000E04010721026E01C0E9FF02C0BA
:1001C000EAFF000EEF6E020E0401056FC80E040177
:1001D000046F8DEF04F000017A818DEF04F00001CF
:1001E0007651020A02E1FDEF00F000017651030AA8
:1001F00002E137EF01F0C2EF01F064C001F00150FD
:100200000F0B01E030D006C402F007C403F001AECA
:100210000EEF01F004C401F010EF01F000C401F092
:10022000040E0116D8900130016ED890013202C040
:10023000E9FF03C0EAFF01C0EFFF010E040106253C
:10024000016E000E04010721026E01C0E9FF02C029
:10025000EAFF000EEF6E020E0401056FC80E0401E6
:10026000046F8DEF04F000017A818DEF04F00F0E22
:1002700000016415016E01C002F0036A0250046EB1
:1002800004260334056E800E00016415026E0250D0
:10029000D8B44FEF01F0010E036E50EF01F0036A86
:1002A000066A03500412065005120550E56E04500C
:1002B000E56E000EE56E040EE56EA4EC08F0036E2C
:1002C000F3CF04F0040EE126000E0326040E0422F0
:1002D0000450046E0350036E800E056E700E0124F0
:1002E000066E0F0E076A0722000E086A082206C073
:1002F000E9FF07C0F3FF085034EC09F0066E025026
:10030000D8B487EF01F0020E026E89EF01F0040EFF
:10031000026E025006160650D8B4BEEF01F006C4B5
:1003200002F007C406F003C0E9FF04C0F3FF055064
:1003300034EC09F0076E040E0716D8900730076EEC
:10034000D890073202C0E9FF06C0EAFF07C0EFFFFE
:10035000010E04010625026E000E04010721066E3F
:1003600002C0E9FF06C0EAFF000EEF6E020E0401B4
:10037000056FC80E0401046F8DEF04F000017A814F
:100380008DEF04F000017A818DEF04F000017A8195
:100390008DEF04F01F0E00016015026E025002E1A5
:1003A000D9EF01F00250020A02E1F9EF01F0CCEFBF
:1003B00002F000016251010A02E1E1EF01F0F5EF04
:1003C00001F00050010A02E1E8EF01F0ECEF01F06A
:1003D00000017791EEEF01F0000177810401056BD8
:1003E000C80E0401046F8DEF04F000017A818DEFD7
:1003F00004F000017651020A02E107EF02F0000169
:100400007651030A02E117EF02F0C8EF02F0000193
:1004100064510F0B01E007D00401056BC80E040105
:10042000046F8DEF04F000017A818DEF04F064C059
:1004300002F00F0E0214066E06C001F00650D8B48A
:10044000BDEF02F001C006F0076A0650086E0826EC
:100450000734096E800E02160250D8B434EF02F051
:10046000010E066E35EF02F0066A076A06500812A2
:10047000075009120950E56E0850E56E000EE56E52
:10048000040EE56EA4EC08F0066EF3CF07F0040E40
:10049000E126000E0626040E07220750046E0650C1
:1004A000036E800E056E0250D8B48CEF02F0700E11
:1004B0000124026E0F0E066A0622000E076A07224A
:1004C00002C0E9FF06C0F3FF075034EC09F0026EEA
:1004D00002A288EF02F003C002F004C006F005C0DB
:1004E00007F00050010A02E178EF02F07BEF02F022
:1004F000086A7DEF02F0840E086E08C0E5FF02C0B6
:10050000E9FF06C0F3FF075051EC09F0BDEF02F020
:1005100000017A81BDEF02F0700E01260F0E02225B
:10052000000E062201C0E9FF02C0F3FF065034ECC2
:1005300009F0016E01A4BBEF02F003C001F004C09A
:1005400002F005C003F00050010A02E1AAEF02F038
:10055000AEEF02F0880E006EB0EF02F0840E006E77
:1005600000C0E5FF01C0E9FF02C0F3FF035051ECFA
:1005700009F0BDEF02F000017A8100017AB18DEF40
:1005800004F00401056BC80E0401046F8DEF04F044
:1005900000017A818DEF04F000017A818DEF04F083
:1005A00062C000F0800E005CD8A0DBEF02F000011A
:1005B0007A818DEF04F0050E0001786F00C07BF0AA
:1005C0000401056BC80E0401046F8DEF04F0060EE4
:1005D0000001786F63C000F0010E005CD8A0F4EF5A
:1005E00003F0040E005CD8B0F4EF03F000060AC07C
:1005F000E5FF0BC0E5FF0B6A00340B36E8340B3621
:10060000FC0B0A6E000EFB6E060EFA6E240E0A2616
:100610000B50FA22D8B0FB2A0A50E4CF0BF0E4CFFB
:100620000AF0F96E18EF03F043EF03F083EF03F0E5
:10063000060E00016C6F100E00016D6F000E0001C0
:100640006E6F6CC000F06DC001F06EC002F000C0B3
:10065000F6FF01C0F7FF02C0F8FF0900F5CF7CF0FC
:1006600000016751D8A43FEF03F066C000F000011D
:100670007C51005CD8B03FEF03F000C07CF0BFECD1
:1006800006F08DEF04F00001625102E14AEF03F041
:1006900055EF03F0180E00016C6F100E00016D6F26
:1006A000000E00016E6F57EF03F000017A81000128
:1006B0007AB18DEF04F0020E00016C25006E000E81
:1006C00000016D21016E000E00016E21026E00C05E
:1006D000F6FF01C0F7FF02C0F8FF0900F5CF7CF07C
:1006E00000016751D8A47FEF03F066C000F000015D
:1006F0007C51005CD8B07FEF03F000C07CF0BFEC11
:1007000006F08DEF04F062C000F0030E005CD8B07C
:10071000CCEF03F00AC0E5FF0BC0E5FF0B6A003425
:100720000B36E8340B36FC0B0A6E000EFB6E070E20
:10073000FA6E4A0E0A260B50FA22D8B0FB2A0A504B
:10074000E4CF0BF0E4CF0AF0F96EABEF03F0B6EFB5
:1007500003F0C1EF03F02A0E00016C6F100E0001D0
:100760006D6F000E00016E6FCEEF03F02E0E0001D4
:100770006C6F100E00016D6F000E00016E6FCEEFFA
:1007800003F0640E00016C6F100E00016D6F000E1F
:1007900000016E6FCEEF03F000017A8100017AB1A3
:1007A0008DEF04F06CC000F06DC001F06EC002F07F
:1007B00000C0F6FF01C0F7FF02C0F8FF0900F5CF47
:1007C0007CF000016751D8A4F0EF03F066C000F0A0
:1007D00000017C51005CD8B0F0EF03F000C07CF069
:1007E000BFEC06F08DEF04F000017A818DEF04F08C
:1007F00006C400F007C401F000C0E9FF01C0EAFF31
:1008000075C0EFFF010E0401056FC80E0401046FEF
:100810008DEF04F062C000F0020E005CD8B037EF3C
:1008200004F0716A726A736A746A756A766A776AC2
:10083000786A796A7A6A7B6A7C6A7D6A7E6A7F6A8C
:1008400000C075F0005002E128EF04F02DEF04F035
:10085000020E0001766F30EF04F0030E0001766F98
:100860000401056BC80E0401046F8DEF04F0000154
:100870007A818DEF04F000017651030A02E143EF23
:1008800004F05FEF04F0010E0001645DD8B05BEF8F
:1008900004F006C400F007C401F000C0E9FF01C085
:1008A000EAFF000EEF6E010E0401056FC80E040191
:1008B000046F8DEF04F000017A818DEF04F00001E8
:1008C0007A818DEF04F000017651030A02E16BEFAB
:1008D00004F087EF04F0010E0001645DD8B083EFEF
:1008E00004F00001625102E178EF04F07FEF04F0C0
:1008F0000401056BC80E0401046F8DEF04F00001C4
:100900007A818DEF04F000017A818DEF04F000010F
:100910007A818DEF04F000017A81E4CF09F0E4CF11
:1009200008F0E4CF07F0E4CF06F0E4CF05F0E4CF21
:1009300004F0E4CF03F0E4CF02F0E4CF01F0E4CF21
:1009400000F0E4CFD9FF1200D9CFE5FFE1CFD9FF06
:1009500000C0E5FF01C0E5FF02C0E5FF03C0E5FF01
:1009600068A2B6EF04F06A6A85EF05F068ACBCEFE8
:1009700004F0689C85EF05F068A8C3EF04F0689860
:100980006D8285EF05F068A4CAEF04F068946D925B
:1009900085EF05F068AAD0EF04F0689A85EF05F0BE
:1009A00068A021EF05F00001756B6896689668965F
:1009B0006896706A716A726A736A746A756A766A2E
:1009C000776A786A796A7A6A7B6A7C6A7D6A7E6A03
:1009D0007F6A080E0401016F800E0401026F040E8D
:1009E0000401036F880E0401006F880E0401066F76
:1009F000040E0401076F080E0401046F080E0401C1
:100A0000096F800E04010A6F040E04010B6F880E3B
:100A10000401086F880E04010E6F040E04010F6FAD
:100A2000080E04010C6F6E6A686A160E706EFF0E77
:100A30006B6E010E0001766F010E0001776F85EF7E
:100A400005F068A685EF05F07C0E6C14006E016A57
:100A5000040E012600C0E9FF01C0EAFFEFCF02F05B
:100A600002500001686F010E0024026E000E01208A
:100A7000036E02C0E9FF03C0EAFFEFCF02F00250AD
:100A80000001696F020E0026D8B0012A00C0E9FFFC
:100A900001C0EAFFEECF00F0EFCF01F000500001FF
:100AA0006A6F015000016B6F6CCF79F0689600019E
:100AB0007A6B3C0E00016815006E0050040A02E1DA
:100AC00076EF05F00050240A02E172EF05F00050C5
:100AD000340A02E16EEF05F078EF05F090EC05F0D6
:100AE00078EF05F02DEC06F078EF05F033EC07F029
:100AF00000017AA185EF05F0080E0401016F840E54
:100B00000401046F840E0401006FE4CF03F0E4CF0E
:100B100002F0E4CF01F0E4CF00F0E4CFD9FF1200FF
:100B2000D9CFE5FFE1CFD9FF00C0E5FF01C0E5FF68
:100B300002C0E5FF03C0E5FF04C0E5FF8184006A51
:100B4000080E005CD8B0C2EF05F0600E0024016E04
:100B5000026A000E0222005000016A25036EE86A54
:100B600000016B21046E03C0E9FF04C0EAFFEFCF70
:100B700003F001C0E9FF02C0EAFF03C0EFFF002A53
:100B8000A0EF05F0080E0401016F080E0401046FC8
:100B900060C000F0800E0014016E0150D880E8663D
:100BA000D890016A01360150D8B4EAEF05F000018F
:100BB0006651D8A4E4EF05F000016751D8A4E4EF32
:100BC00005F0016AE6EF05F0010E016E0150D8A4B0
:100BD000EDEF05F0016AEFEF05F0010E016E015037
:100BE000D8B4F7EF05F0C80E016EF9EF05F0880EE6
:100BF000016E01500401006F6D98FF0E0001786FC7
:100C0000600E0016005002E112EF06F00050200ABC
:100C100002E116EF06F00050400A02E11AEF06F07A
:100C20001EEF06F015EC00F020EF06F05BEC09F08B
:100C300020EF06F0F4EC08F020EF06F000017A81D6
:100C4000E4CF04F0E4CF03F0E4CF02F0E4CF01F00E
:100C5000E4CF00F0E4CFD9FF1200D9CFE5FFE1CF18
:100C6000D9FF00C0E5FF01C0E5FF780E000179154E
:100C7000006E005002E183EF06F00050080A02E126
:100C8000A8EF06F00050100A02E1B8EF06F000509D
:100C9000180A02E1B8EF06F00050200A02E1B8EFAE
:100CA00006F00050280A02E1B8EF06F00050300AC2
:100CB00002E1B8EF06F00050380A02E1B8EF06F0A2
:100CC0000050400A02E1B8EF06F00050480A02E185
:100CD000B8EF06F00050500A02E1B8EF06F00050FD
:100CE000580A02E1B8EF06F00050600A02E1B8EFDE
:100CF00006F00050680A02E1B8EF06F00050700AF2
:100D000000E1B8EF06F000017851050A02E191EF29
:100D100006F000017851060A02E1A4EF06F0B8EFF0
:100D200006F07BC06EFF00017B5102E19AEF06F0F6
:100D30009FEF06F0010E0001766FB8EF06F0020E8D
:100D40000001766FB8EF06F0BFEC06F0B8EF06F0E2
:100D50000EC400F00FC401F000C0E9FF01C0EAFFBB
:100D6000000EEF6E010E04010D6FC80E04010C6F32
:100D7000E4CF01F0E4CF00F0E4CFD9FF1200D9CFE7
:100D8000E5FFE1CFD9FF00C0E5FF01C0E5FF02C0EC
:100D9000E5FF03C0E5FF04C0E5FF05C0E5FF080E61
:100DA00000017C5DD8B0DEEF06F0FF0E0001786F29
:100DB0007CC07DF000017C6BE4EF06F0080E0001C2
:100DC0007D6FF80E00017C27006A00017D51005CF8
:100DD000D8B015EF07F0005004010625016EE86A4F
:100DE00004010721026E6CC003F06DC004F06EC0F8
:100DF00005F003C0F6FF04C0F7FF05C0F8FF0900C7
:100E0000F5CF03F000016C2BD8A002D000016D2BB0
:100E1000D8A002D000016E2B01C0E9FF02C0EAFF9A
:100E200003C0EFFF002AE5EF06F000017D51040149
:100E3000056F400E04010419006E400E0016880E66
:100E4000001200500401046FE4CF05F0E4CF04F079
:100E5000E4CF03F0E4CF02F0E4CF01F0E4CF00F000
:100E6000E4CFD9FF1200D9CFE5FFE1CFD9FF00C011
:100E7000E5FF780E00017915006E005002E187EF62
:100E800007F00050080A02E194EF07F00050100A42
:100E900002E1A1EF07F00050180A02E1A1EF07F00C
:100EA0000050200A02E1A1EF07F00050280A02E1F9
:100EB000A1EF07F00050300A02E1A1EF07F0005067
:100EC000380A02E1A1EF07F00050400A02E1A1EF69
:100ED00007F00050480A02E1A1EF07F00050500A65
:100EE00002E1A1EF07F00050580A02E1A1EF07F07C
:100EF0000050600A02E1A1EF07F00050680A02E129
:100F0000A1EF07F00050700A00E1A1EF07F0080E12
:100F10000401016F880E0401006F0401056BC80E07
:100F20000401046FA1EF07F00AC481FF080E040159
:100F3000096F880E0401086F04010D6BC80E0401CF
:100F40000C6FE4CF00F0E4CFD9FF1200D9CFE5FF5A
:100F5000E1CFD9FF80C4E8FF88C4E8FF90C4E8FF70
:100F600098C4E8FFA0C4E8FFA8C4E8FFB0C4E8FF45
:100F7000B8C4E8FFC0C4E8FFC8C4E8FFD0C4E8FFB5
:100F8000D8C4E8FFE0C4E8FFE8C4E8FFF0C4E8FF25
:100F9000F8C4E8FF00C5E8FF08C5E8FF10C5E8FF92
:100FA00018C5E8FF20C5E8FF28C5E8FF30C5E8FF01
:100FB00038C5E8FF40C5E8FF48C5E8FF50C5E8FF71
:100FC00058C5E8FF60C5E8FF68C5E8FF70C5E8FFE1
:100FD00078C5E8FF696A686A100E6F6E080E6D6E5C
:100FE0000001756B0001766B010E0001776FFF0E3B
:100FF0000001786F936AFF0E816E6DBAFDEF07F006
:10100000E4CFD9FF12001201100100000008D8043B
:10101000010000000102000109021200010100A00C
:10102000320904000000FF00FF0004030904360336
:101030004D006900630072006F0063006800690082
:101040007000200054006500630068006E006F00AF
:101050006C006F00670079002C00200049006E00D2
:1010600063002E00440345004E004700520020005C
:1010700032003200310030002000500049004300AF
:1010800031003800460032003400350035002000C1
:1010900055005300420020004600690072006D00B8
:1010A0007700610072006500C80EF66E120EF76ED2
:1010B000000EF86E0900F550056E0900F550066E39
:1010C00004E1056702D0A3EF08F00900F550006EB7
:1010D0000900F550016E0900F550026E0900090083
:1010E000F550E96E0900F550EA6E090009000900A3
:1010F000F550036E0900F550046E09000900F6CFA3
:1011000007F0F7CF08F0F8CF09F000C0F6FF01C0F4
:10111000F7FF02C0F8FF035002E1045009E00900A4
:10112000F550EE6EF5CF7EFF0306F6E20406F7D724
:1011300007C0F6FF08C0F7FF09C0F8FF050601E287
:10114000060660EF08F01200D9CFE5FFE1CFD9FF26
:1011500000C0E5FF01C0E5FF02C0E5FF03C0E5FFF9
:10116000020EDBCF00F0030EDBCF01F0040EDBCF6D
:1011700002F0050EDBCF03F0005000016F6F01504D
:10118000706F02500001716F0350726F00016F5158
:1011900000017103F3CF00F0F4CF01F00050000123
:1011A000736F0150746F00016F5100017203F3CF30
:1011B00000F00001705100017103F3CF01F0015004
:1011C00000260001745100260050746F74C0F3FFB4
:1011D0007351E4CF03F0E4CF02F0E4CF01F0E4CFA9
:1011E00000F0E4CFD9FF1200D9CFE5FFE1CFD9FF5E
:1011F00000C0E5FF61C000F00050010A02E108EF05
:1012000009F00050020A02E110EF09F018EF09F0AE
:1012100080800401056BC80E0401046F1AEF09F009
:1012200080900401056BC80E0401046F1AEF09F0E9
:1012300000017A81E4CF00F0E4CFD9FF1200806A88
:101240000F0EC16E926AA6EC07F000017651030AF8
:1012500002E12FEF09F0A4EC04F025EF09F0A4EC73
:1012600004F02FEF09F01200E8AE04D0F3CFEAFF4C
:10127000EE501200E8BC08D0E9CFF6FFF3CFF7FF3D
:10128000F86E0900F5501200120012EEFFF022EE87
:10129000FFF0F86AA68EA69C54EC08F01FEC09F04B
:1012A000FFD7E8AE05D0F3CFEAFFE4CFEEFF1200A0
:1012B000E8AC12001200D9CFE5FFE1CFD9FF000161
:1012C0007A81E4CFD9FF12000100D61200007E001F
:0812D000000001000000000015
:020000040030CA
:0E000000F032EFFEFFF89BFFFFFFFFFFFFFF58
:00000001FF
